{
  "_format": "hh-sol-artifact-1",
  "contractName": "PropertyMarketplace",
  "sourceName": "contracts/PropertyMarketplace.sol",
  "abi": [
    {
      "inputs": [],
      "stateMutability": "nonpayable",
      "type": "constructor"
    },
    {
      "inputs": [],
      "name": "EnforcedPause",
      "type": "error"
    },
    {
      "inputs": [],
      "name": "ExpectedPause",
      "type": "error"
    },
    {
      "inputs": [
        {
          "internalType": "address",
          "name": "owner",
          "type": "address"
        }
      ],
      "name": "OwnableInvalidOwner",
      "type": "error"
    },
    {
      "inputs": [
        {
          "internalType": "address",
          "name": "account",
          "type": "address"
        }
      ],
      "name": "OwnableUnauthorizedAccount",
      "type": "error"
    },
    {
      "inputs": [],
      "name": "ReentrancyGuardReentrantCall",
      "type": "error"
    },
    {
      "anonymous": false,
      "inputs": [
        {
          "indexed": true,
          "internalType": "uint256",
          "name": "listingId",
          "type": "uint256"
        }
      ],
      "name": "ListingCancelled",
      "type": "event"
    },
    {
      "anonymous": false,
      "inputs": [
        {
          "indexed": true,
          "internalType": "uint256",
          "name": "listingId",
          "type": "uint256"
        },
        {
          "indexed": true,
          "internalType": "address",
          "name": "seller",
          "type": "address"
        },
        {
          "indexed": true,
          "internalType": "uint256",
          "name": "propertyTokenId",
          "type": "uint256"
        },
        {
          "indexed": false,
          "internalType": "uint256",
          "name": "pricePerShare",
          "type": "uint256"
        },
        {
          "indexed": false,
          "internalType": "uint256",
          "name": "sharesAvailable",
          "type": "uint256"
        }
      ],
      "name": "ListingCreated",
      "type": "event"
    },
    {
      "anonymous": false,
      "inputs": [
        {
          "indexed": true,
          "internalType": "uint256",
          "name": "listingId",
          "type": "uint256"
        },
        {
          "indexed": false,
          "internalType": "uint256",
          "name": "pricePerShare",
          "type": "uint256"
        },
        {
          "indexed": false,
          "internalType": "uint256",
          "name": "sharesAvailable",
          "type": "uint256"
        }
      ],
      "name": "ListingUpdated",
      "type": "event"
    },
    {
      "anonymous": false,
      "inputs": [
        {
          "indexed": true,
          "internalType": "uint256",
          "name": "offerId",
          "type": "uint256"
        },
        {
          "indexed": true,
          "internalType": "uint256",
          "name": "listingId",
          "type": "uint256"
        }
      ],
      "name": "OfferAccepted",
      "type": "event"
    },
    {
      "anonymous": false,
      "inputs": [
        {
          "indexed": true,
          "internalType": "uint256",
          "name": "offerId",
          "type": "uint256"
        }
      ],
      "name": "OfferCancelled",
      "type": "event"
    },
    {
      "anonymous": false,
      "inputs": [
        {
          "indexed": true,
          "internalType": "uint256",
          "name": "offerId",
          "type": "uint256"
        },
        {
          "indexed": true,
          "internalType": "address",
          "name": "buyer",
          "type": "address"
        },
        {
          "indexed": true,
          "internalType": "uint256",
          "name": "listingId",
          "type": "uint256"
        },
        {
          "indexed": false,
          "internalType": "uint256",
          "name": "shares",
          "type": "uint256"
        },
        {
          "indexed": false,
          "internalType": "uint256",
          "name": "pricePerShare",
          "type": "uint256"
        }
      ],
      "name": "OfferMade",
      "type": "event"
    },
    {
      "anonymous": false,
      "inputs": [
        {
          "indexed": true,
          "internalType": "address",
          "name": "previousOwner",
          "type": "address"
        },
        {
          "indexed": true,
          "internalType": "address",
          "name": "newOwner",
          "type": "address"
        }
      ],
      "name": "OwnershipTransferred",
      "type": "event"
    },
    {
      "anonymous": false,
      "inputs": [
        {
          "indexed": false,
          "internalType": "address",
          "name": "account",
          "type": "address"
        }
      ],
      "name": "Paused",
      "type": "event"
    },
    {
      "anonymous": false,
      "inputs": [
        {
          "indexed": true,
          "internalType": "uint256",
          "name": "listingId",
          "type": "uint256"
        },
        {
          "indexed": true,
          "internalType": "address",
          "name": "buyer",
          "type": "address"
        },
        {
          "indexed": false,
          "internalType": "uint256",
          "name": "shares",
          "type": "uint256"
        },
        {
          "indexed": false,
          "internalType": "uint256",
          "name": "pricePerShare",
          "type": "uint256"
        }
      ],
      "name": "SharesPurchased",
      "type": "event"
    },
    {
      "anonymous": false,
      "inputs": [
        {
          "indexed": false,
          "internalType": "address",
          "name": "account",
          "type": "address"
        }
      ],
      "name": "Unpaused",
      "type": "event"
    },
    {
      "inputs": [
        {
          "internalType": "uint256",
          "name": "offerId",
          "type": "uint256"
        }
      ],
      "name": "acceptOffer",
      "outputs": [],
      "stateMutability": "nonpayable",
      "type": "function"
    },
    {
      "inputs": [
        {
          "internalType": "address",
          "name": "",
          "type": "address"
        }
      ],
      "name": "accumulatedFees",
      "outputs": [
        {
          "internalType": "uint256",
          "name": "",
          "type": "uint256"
        }
      ],
      "stateMutability": "view",
      "type": "function"
    },
    {
      "inputs": [
        {
          "internalType": "uint256",
          "name": "listingId",
          "type": "uint256"
        },
        {
          "internalType": "uint256",
          "name": "shares",
          "type": "uint256"
        }
      ],
      "name": "buyShares",
      "outputs": [],
      "stateMutability": "payable",
      "type": "function"
    },
    {
      "inputs": [
        {
          "internalType": "uint256",
          "name": "listingId",
          "type": "uint256"
        }
      ],
      "name": "cancelListing",
      "outputs": [],
      "stateMutability": "nonpayable",
      "type": "function"
    },
    {
      "inputs": [
        {
          "internalType": "uint256",
          "name": "offerId",
          "type": "uint256"
        }
      ],
      "name": "cancelOffer",
      "outputs": [],
      "stateMutability": "nonpayable",
      "type": "function"
    },
    {
      "inputs": [
        {
          "internalType": "uint256",
          "name": "propertyTokenId",
          "type": "uint256"
        },
        {
          "internalType": "uint256",
          "name": "pricePerShare",
          "type": "uint256"
        },
        {
          "internalType": "uint256",
          "name": "sharesAvailable",
          "type": "uint256"
        },
        {
          "internalType": "address",
          "name": "paymentToken",
          "type": "address"
        }
      ],
      "name": "createListing",
      "outputs": [
        {
          "internalType": "uint256",
          "name": "",
          "type": "uint256"
        }
      ],
      "stateMutability": "nonpayable",
      "type": "function"
    },
    {
      "inputs": [
        {
          "internalType": "uint256",
          "name": "listingId",
          "type": "uint256"
        }
      ],
      "name": "getListing",
      "outputs": [
        {
          "components": [
            {
              "internalType": "address",
              "name": "seller",
              "type": "address"
            },
            {
              "internalType": "uint256",
              "name": "propertyTokenId",
              "type": "uint256"
            },
            {
              "internalType": "uint256",
              "name": "pricePerShare",
              "type": "uint256"
            },
            {
              "internalType": "uint256",
              "name": "sharesAvailable",
              "type": "uint256"
            },
            {
              "internalType": "address",
              "name": "paymentToken",
              "type": "address"
            },
            {
              "internalType": "bool",
              "name": "isActive",
              "type": "bool"
            },
            {
              "internalType": "uint256",
              "name": "timestamp",
              "type": "uint256"
            }
          ],
          "internalType": "struct PropertyMarketplace.Listing",
          "name": "",
          "type": "tuple"
        }
      ],
      "stateMutability": "view",
      "type": "function"
    },
    {
      "inputs": [
        {
          "internalType": "uint256",
          "name": "offerId",
          "type": "uint256"
        }
      ],
      "name": "getOffer",
      "outputs": [
        {
          "components": [
            {
              "internalType": "address",
              "name": "buyer",
              "type": "address"
            },
            {
              "internalType": "uint256",
              "name": "listingId",
              "type": "uint256"
            },
            {
              "internalType": "uint256",
              "name": "shares",
              "type": "uint256"
            },
            {
              "internalType": "uint256",
              "name": "pricePerShare",
              "type": "uint256"
            },
            {
              "internalType": "uint256",
              "name": "expirationTime",
              "type": "uint256"
            },
            {
              "internalType": "bool",
              "name": "isAccepted",
              "type": "bool"
            }
          ],
          "internalType": "struct PropertyMarketplace.Offer",
          "name": "",
          "type": "tuple"
        }
      ],
      "stateMutability": "view",
      "type": "function"
    },
    {
      "inputs": [
        {
          "internalType": "address",
          "name": "user",
          "type": "address"
        }
      ],
      "name": "getUserListings",
      "outputs": [
        {
          "internalType": "uint256[]",
          "name": "",
          "type": "uint256[]"
        }
      ],
      "stateMutability": "view",
      "type": "function"
    },
    {
      "inputs": [
        {
          "internalType": "address",
          "name": "user",
          "type": "address"
        }
      ],
      "name": "getUserOffers",
      "outputs": [
        {
          "internalType": "uint256[]",
          "name": "",
          "type": "uint256[]"
        }
      ],
      "stateMutability": "view",
      "type": "function"
    },
    {
      "inputs": [
        {
          "internalType": "uint256",
          "name": "",
          "type": "uint256"
        }
      ],
      "name": "listings",
      "outputs": [
        {
          "internalType": "address",
          "name": "seller",
          "type": "address"
        },
        {
          "internalType": "uint256",
          "name": "propertyTokenId",
          "type": "uint256"
        },
        {
          "internalType": "uint256",
          "name": "pricePerShare",
          "type": "uint256"
        },
        {
          "internalType": "uint256",
          "name": "sharesAvailable",
          "type": "uint256"
        },
        {
          "internalType": "address",
          "name": "paymentToken",
          "type": "address"
        },
        {
          "internalType": "bool",
          "name": "isActive",
          "type": "bool"
        },
        {
          "internalType": "uint256",
          "name": "timestamp",
          "type": "uint256"
        }
      ],
      "stateMutability": "view",
      "type": "function"
    },
    {
      "inputs": [
        {
          "internalType": "uint256",
          "name": "listingId",
          "type": "uint256"
        },
        {
          "internalType": "uint256",
          "name": "shares",
          "type": "uint256"
        },
        {
          "internalType": "uint256",
          "name": "pricePerShare",
          "type": "uint256"
        },
        {
          "internalType": "uint256",
          "name": "expirationTime",
          "type": "uint256"
        }
      ],
      "name": "makeOffer",
      "outputs": [
        {
          "internalType": "uint256",
          "name": "",
          "type": "uint256"
        }
      ],
      "stateMutability": "nonpayable",
      "type": "function"
    },
    {
      "inputs": [],
      "name": "marketplaceFeePercent",
      "outputs": [
        {
          "internalType": "uint256",
          "name": "",
          "type": "uint256"
        }
      ],
      "stateMutability": "view",
      "type": "function"
    },
    {
      "inputs": [
        {
          "internalType": "uint256",
          "name": "",
          "type": "uint256"
        }
      ],
      "name": "offers",
      "outputs": [
        {
          "internalType": "address",
          "name": "buyer",
          "type": "address"
        },
        {
          "internalType": "uint256",
          "name": "listingId",
          "type": "uint256"
        },
        {
          "internalType": "uint256",
          "name": "shares",
          "type": "uint256"
        },
        {
          "internalType": "uint256",
          "name": "pricePerShare",
          "type": "uint256"
        },
        {
          "internalType": "uint256",
          "name": "expirationTime",
          "type": "uint256"
        },
        {
          "internalType": "bool",
          "name": "isAccepted",
          "type": "bool"
        }
      ],
      "stateMutability": "view",
      "type": "function"
    },
    {
      "inputs": [],
      "name": "owner",
      "outputs": [
        {
          "internalType": "address",
          "name": "",
          "type": "address"
        }
      ],
      "stateMutability": "view",
      "type": "function"
    },
    {
      "inputs": [],
      "name": "pause",
      "outputs": [],
      "stateMutability": "nonpayable",
      "type": "function"
    },
    {
      "inputs": [],
      "name": "paused",
      "outputs": [
        {
          "internalType": "bool",
          "name": "",
          "type": "bool"
        }
      ],
      "stateMutability": "view",
      "type": "function"
    },
    {
      "inputs": [],
      "name": "propertyNFT",
      "outputs": [
        {
          "internalType": "contract PropertyNFT",
          "name": "",
          "type": "address"
        }
      ],
      "stateMutability": "view",
      "type": "function"
    },
    {
      "inputs": [],
      "name": "renounceOwnership",
      "outputs": [],
      "stateMutability": "nonpayable",
      "type": "function"
    },
    {
      "inputs": [
        {
          "internalType": "address",
          "name": "_propertyNFT",
          "type": "address"
        }
      ],
      "name": "setPropertyNFT",
      "outputs": [],
      "stateMutability": "nonpayable",
      "type": "function"
    },
    {
      "inputs": [
        {
          "internalType": "address",
          "name": "newOwner",
          "type": "address"
        }
      ],
      "name": "transferOwnership",
      "outputs": [],
      "stateMutability": "nonpayable",
      "type": "function"
    },
    {
      "inputs": [],
      "name": "unpause",
      "outputs": [],
      "stateMutability": "nonpayable",
      "type": "function"
    },
    {
      "inputs": [
        {
          "internalType": "uint256",
          "name": "listingId",
          "type": "uint256"
        },
        {
          "internalType": "uint256",
          "name": "newPricePerShare",
          "type": "uint256"
        },
        {
          "internalType": "uint256",
          "name": "newSharesAvailable",
          "type": "uint256"
        }
      ],
      "name": "updateListing",
      "outputs": [],
      "stateMutability": "nonpayable",
      "type": "function"
    },
    {
      "inputs": [
        {
          "internalType": "address",
          "name": "",
          "type": "address"
        },
        {
          "internalType": "uint256",
          "name": "",
          "type": "uint256"
        }
      ],
      "name": "userListings",
      "outputs": [
        {
          "internalType": "uint256",
          "name": "",
          "type": "uint256"
        }
      ],
      "stateMutability": "view",
      "type": "function"
    },
    {
      "inputs": [
        {
          "internalType": "address",
          "name": "",
          "type": "address"
        },
        {
          "internalType": "uint256",
          "name": "",
          "type": "uint256"
        }
      ],
      "name": "userOffers",
      "outputs": [
        {
          "internalType": "uint256",
          "name": "",
          "type": "uint256"
        }
      ],
      "stateMutability": "view",
      "type": "function"
    },
    {
      "inputs": [
        {
          "internalType": "address",
          "name": "paymentToken",
          "type": "address"
        }
      ],
      "name": "withdrawFees",
      "outputs": [],
      "stateMutability": "nonpayable",
      "type": "function"
    }
  ],
  "bytecode": "0x608060405260fa60035534801561001557600080fd5b50338061003c57604051631e4fbdf760e01b81526000600482015260240160405180910390fd5b6100458161004f565b506001805561009f565b600080546001600160a01b038381166001600160a01b0319831681178455604051919092169283917f8be0079c531659141344cd1fd0a4f28419497f9722a3daafe3b4186f6b6457e09190a35050565b611f62806100ae6000396000f3fe6080604052600436106101815760003560e01c806386cfa7d3116100d1578063c815729d1161008a578063ef706adf11610064578063ef706adf1461060a578063f2fde38b1461062a578063f6cf2a161461064a578063fcf666641461066a57600080fd5b8063c815729d1461051b578063de74e57b1461053b578063eb18a9d8146105ea57600080fd5b806386cfa7d3146103f45780638a72ea6a146104145780638da5cb5b146104aa5780638ebaae08146104c8578063bd5fec65146104e8578063beebc5da1461050857600080fd5b80634579268a1161013e57806364e574c21161011857806364e574c21461037d578063661d2c2c1461039d578063715018a6146103ca5780638456cb59146103df57600080fd5b80634579268a146102c85780635c975abb1461033a5780635f1fbccc1461035d57600080fd5b8063107a274a14610186578063164e68de14610210578063305a67a81461023257806337f768381461025257806338d73b0d1461028f5780633f4ba83a146102b3575b600080fd5b34801561019257600080fd5b506101a66101a1366004611af0565b610697565b604051610207919081516001600160a01b0390811682526020808401519083015260408084015190830152606080840151908301526080808401519091169082015260a08281015115159082015260c0918201519181019190915260e00190565b60405180910390f35b34801561021c57600080fd5b5061023061022b366004611b1e565b610762565b005b34801561023e57600080fd5b5061023061024d366004611af0565b6108bc565b34801561025e57600080fd5b506002546102779061010090046001600160a01b031681565b6040516001600160a01b039091168152602001610207565b34801561029b57600080fd5b506102a560035481565b604051908152602001610207565b3480156102bf57600080fd5b50610230610968565b3480156102d457600080fd5b506102e86102e3366004611af0565b61097a565b604051610207919081516001600160a01b031681526020808301519082015260408083015190820152606080830151908201526080808301519082015260a09182015115159181019190915260c00190565b34801561034657600080fd5b5060025460ff166040519015158152602001610207565b34801561036957600080fd5b50610230610378366004611b1e565b610a25565b34801561038957600080fd5b506102a5610398366004611b42565b610a55565b3480156103a957600080fd5b506103bd6103b8366004611b1e565b610c64565b6040516102079190611b74565b3480156103d657600080fd5b50610230610cd0565b3480156103eb57600080fd5b50610230610ce2565b34801561040057600080fd5b506102a561040f366004611bb8565b610cf2565b34801561042057600080fd5b5061047161042f366004611af0565b6007602052600090815260409020805460018201546002830154600384015460048501546005909501546001600160a01b039094169492939192909160ff1686565b604080516001600160a01b03909716875260208701959095529385019290925260608401526080830152151560a082015260c001610207565b3480156104b657600080fd5b506000546001600160a01b0316610277565b3480156104d457600080fd5b506102a56104e3366004611be4565b610d23565b3480156104f457600080fd5b506102a5610503366004611bb8565b610f95565b610230610516366004611c25565b610fb1565b34801561052757600080fd5b50610230610536366004611af0565b61110a565b34801561054757600080fd5b506105a3610556366004611af0565b6006602052600090815260409020805460018201546002830154600384015460048501546005909501546001600160a01b0394851695939492939192821691600160a01b900460ff169087565b604080516001600160a01b03988916815260208101979097528601949094526060850192909252909316608083015291151560a082015260c081019190915260e001610207565b3480156105f657600080fd5b506103bd610605366004611b1e565b611312565b34801561061657600080fd5b50610230610625366004611af0565b61137c565b34801561063657600080fd5b50610230610645366004611b1e565b61144f565b34801561065657600080fd5b50610230610665366004611c47565b61148a565b34801561067657600080fd5b506102a5610685366004611b1e565b60086020526000908152604090205481565b6106eb6040518060e0016040528060006001600160a01b0316815260200160008152602001600081526020016000815260200160006001600160a01b03168152602001600015158152602001600081525090565b50600090815260066020908152604091829020825160e08101845281546001600160a01b0390811682526001830154938201939093526002820154938101939093526003810154606084015260048101549182166080840152600160a01b90910460ff16151560a08301526005015460c082015290565b61076a611584565b6001600160a01b038116600090815260086020526040902054806107cb5760405162461bcd60e51b81526020600482015260136024820152724e6f206665657320746f20776974686472617760681b60448201526064015b60405180910390fd5b6001600160a01b03821660008181526008602052604081205561082657600080546040516001600160a01b039091169183156108fc02918491818181858888f19350505050158015610821573d6000803e3d6000fd5b505050565b816001600160a01b031663a9059cbb6108476000546001600160a01b031690565b6040516001600160e01b031960e084901b1681526001600160a01b039091166004820152602481018490526044016020604051808303816000875af1158015610894573d6000803e3d6000fd5b505050506040513d601f19601f820116820180604052508101906108219190611c88565b5050565b6000818152600660205260409020546001600160a01b031633146109225760405162461bcd60e51b815260206004820152601e60248201527f4f6e6c79206c697374696e672073656c6c65722063616e2063616e63656c000060448201526064016107c2565b600081815260066020526040808220600401805460ff60a01b191690555182917f411aee90354c51b1b04cd563fcab2617142a9d50da19232d888547c8a1b7fd8a91a250565b610970611584565b6109786115b1565b565b6109be6040518060c0016040528060006001600160a01b03168152602001600081526020016000815260200160008152602001600081526020016000151581525090565b50600090815260076020908152604091829020825160c08101845281546001600160a01b03168152600182015492810192909252600281015492820192909252600382015460608201526004820154608082015260059091015460ff16151560a082015290565b610a2d611584565b600280546001600160a01b0390921661010002610100600160a81b0319909216919091179055565b6000610a5f611603565b610a6761162d565b600085815260066020526040902060040154600160a01b900460ff16610a9f5760405162461bcd60e51b81526004016107c290611ca3565b600085815260066020526040902060030154841115610b005760405162461bcd60e51b815260206004820152601e60248201527f4f66666572206578636565647320617661696c61626c6520736861726573000060448201526064016107c2565b428211610b4f5760405162461bcd60e51b815260206004820152601760248201527f496e76616c69642065787069726174696f6e2074696d6500000000000000000060448201526064016107c2565b60058054906000610b5f83611ce8565b9091555050600580546040805160c0810182523380825260208083018b81528385018b8152606085018b8152608086018b8152600060a088018181528a825260078752898220985189546001600160a01b0319166001600160a01b0390911617895594516001808a01919091559351600289015591516003880155516004870155915194909701805460ff191694151594909417909355818352600a815283832080549687018155835291829020909401839055815188815290810187905291928892909184917f2de6c00e2f7ac3ce5209a69aa69bfb1009db4b5e7af3071e0b794a74ce8a8d18910160405180910390a49050610c5c60018055565b949350505050565b6001600160a01b0381166000908152600a6020908152604091829020805483518184028101840190945280845260609392830182828015610cc457602002820191906000526020600020905b815481526020019060010190808311610cb0575b50505050509050919050565b610cd8611584565b6109786000611651565b610cea611584565b6109786116a1565b60096020528160005260406000208181548110610d0e57600080fd5b90600052602060002001600091509150505481565b6000610d2d611603565b610d3561162d565b6002546040516332665ffb60e01b81526004810187905260009161010090046001600160a01b0316906332665ffb90602401600060405180830381865afa158015610d84573d6000803e3d6000fd5b505050506040513d6000823e601f3d908101601f19168201604052610dac9190810190611e02565b80519091506001600160a01b03163314610e085760405162461bcd60e51b815260206004820152601c60248201527f4f6e6c792070726f7065727479206f776e65722063616e206c6973740000000060448201526064016107c2565b8060800151841115610e5c5760405162461bcd60e51b815260206004820152601d60248201527f496e73756666696369656e742073686172657320617661696c61626c6500000060448201526064016107c2565b60048054906000610e6c83611ce8565b9091555050600480546040805160e0810182523380825260208083018c81528385018c8152606085018c81526001600160a01b038c811660808801908152600160a089018181524260c08b0190815260008d815260068a528c81209b518c549087166001600160a01b0319909116178c5597518b840155955160028b0155935160038a015590519a8801805493511515600160a01b026001600160a81b03199094169b9092169a909a179190911790555160059094019390935581835260098152838320805496870181558352909120909301829055519091889183907fa3941cfa07eecf2734875ab71cea0e47395be644da6e17b039a7e29efba74ef990610f81908b908b90918252602082015260400190565b60405180910390a4915050610c5c60018055565b600a6020528160005260406000208181548110610d0e57600080fd5b610fb9611603565b610fc161162d565b60008281526006602052604090206004810154600160a01b900460ff16610ffa5760405162461bcd60e51b81526004016107c290611ca3565b806003015482111561105f5760405162461bcd60e51b815260206004820152602860248201527f496e73756666696369656e742073686172657320617661696c61626c6520696e604482015267206c697374696e6760c01b60648201526084016107c2565b8054600282015460048301546110889233926001600160a01b03918216928892889291166116de565b8181600301600082825461109c9190611ec7565b909155505060038101546000036110bd5760048101805460ff60a01b191690555b6002810154604080518481526020810192909252339185917fce81571c08c76465bdf390ad1abe80af8c51c6c4566e3485f9395f13d5ad6328910160405180910390a3506108b860018055565b611112611603565b600081815260076020908152604080832060018101548452600690925290912080546001600160a01b031633146111975760405162461bcd60e51b8152602060048201526024808201527f4f6e6c79206c697374696e672073656c6c65722063616e20616363657074206f604482015263333332b960e11b60648201526084016107c2565b6004810154600160a01b900460ff166111c25760405162461bcd60e51b81526004016107c290611ca3565b600582015460ff16156112105760405162461bcd60e51b815260206004820152601660248201527513d999995c88185b1c9958591e481858d8d95c1d195960521b60448201526064016107c2565b816004015442106112575760405162461bcd60e51b815260206004820152601160248201527013d999995c881a185cc8195e1c1a5c9959607a1b60448201526064016107c2565b81548154600184015460028501546003860154600486015461128b956001600160a01b0390811695811694939291166116de565b60058201805460ff1916600117905560028201546003820180546000906112b3908490611ec7565b909155505060038101546000036112d45760048101805460ff60a01b191690555b600182015460405184907f397f87b3946767b09967764d50032941de13a2606bcb39dfed61d7b1ed0192cc90600090a3505061130f60018055565b50565b6001600160a01b038116600090815260096020908152604091829020805483518184028101840190945280845260609392830182828015610cc45760200282019190600052602060002090815481526020019060010190808311610cb05750505050509050919050565b6000818152600760205260409020546001600160a01b031633146113e25760405162461bcd60e51b815260206004820152601b60248201527f4f6e6c79206f666665722062757965722063616e2063616e63656c000000000060448201526064016107c2565b60008181526007602052604080822080546001600160a01b031916815560018101839055600281018390556003810183905560048101839055600501805460ff191690555182917fc28b4aed030bfacc245c0501326e1beb8c0ef0d60e4edc21067fdeb52da2a7aa91a250565b611457611584565b6001600160a01b03811661148157604051631e4fbdf760e01b8152600060048201526024016107c2565b61130f81611651565b6000838152600660205260409020546001600160a01b031633146114f05760405162461bcd60e51b815260206004820152601e60248201527f4f6e6c79206c697374696e672073656c6c65722063616e20757064617465000060448201526064016107c2565b600083815260066020526040902060040154600160a01b900460ff166115285760405162461bcd60e51b81526004016107c290611ca3565b60008381526006602090815260409182902060028101859055600301839055815184815290810183905284917ff7adc9a0380a940c6058d78194df6a9b9fa5bb431bbad15194913bb611f3f4f7910160405180910390a2505050565b6000546001600160a01b031633146109785760405163118cdaa760e01b81523360048201526024016107c2565b6115b9611acd565b6002805460ff191690557f5db9ee0a495bf2e6ff9c91a7834c1ba4fdd244a5e8aa4e537bd38aeae4b073aa335b6040516001600160a01b03909116815260200160405180910390a1565b60026001540361162657604051633ee5aeb560e01b815260040160405180910390fd5b6002600155565b60025460ff16156109785760405163d93c066560e01b815260040160405180910390fd5b600080546001600160a01b038381166001600160a01b0319831681178455604051919092169283917f8be0079c531659141344cd1fd0a4f28419497f9722a3daafe3b4186f6b6457e09190a35050565b6116a961162d565b6002805460ff191660011790557f62e78cea01bee320cd4e420270b5ea74000d11b0c9f74754ebdbfc544b05a2586115e63390565b60006116ea8385611ee0565b90506000612710600354836116ff9190611ee0565b6117099190611ef7565b905060006117178284611ec7565b90506001600160a01b038416611833578234101561176e5760405162461bcd60e51b8152602060048201526014602482015273125b9cdd59999a58da595b9d081c185e5b595b9d60621b60448201526064016107c2565b6040516001600160a01b0389169082156108fc029083906000818181858888f193505050501580156117a4573d6000803e3d6000fd5b50600080805260086020527f5eff886ea0ce6ca488a3d6e336d6c0f75f46d19b42c06ce5ee98e42c96d256c780548492906117e0908490611f19565b90915550503483101561182e576001600160a01b0389166108fc6118048534611ec7565b6040518115909202916000818181858888f1935050505015801561182c573d6000803e3d6000fd5b505b6119e7565b6040516323b872dd60e01b81526001600160a01b038a811660048301528981166024830152604482018390528591908216906323b872dd906064016020604051808303816000875af115801561188d573d6000803e3d6000fd5b505050506040513d601f19601f820116820180604052508101906118b19190611c88565b6118fd5760405162461bcd60e51b815260206004820152601760248201527f5061796d656e74207472616e73666572206661696c656400000000000000000060448201526064016107c2565b6040516323b872dd60e01b81526001600160a01b038b81166004830152306024830152604482018590528216906323b872dd906064016020604051808303816000875af1158015611952573d6000803e3d6000fd5b505050506040513d601f19601f820116820180604052508101906119769190611c88565b6119b85760405162461bcd60e51b8152602060048201526013602482015272119959481d1c985b9cd9995c8819985a5b1959606a1b60448201526064016107c2565b6001600160a01b038516600090815260086020526040812080548592906119e0908490611f19565b9091555050505b600087815260066020908152604091829020825160e08101845281546001600160a01b039081168252600183015493820184905260028084015483870152600384015460608401526004808501548084166080860152600160a01b900460ff16151560a085015260059094015460c084015254945163425cd37360e11b8152928301939093528c83166024830152604482018a9052926101009004909116906384b9a6e690606401600060405180830381600087803b158015611aa957600080fd5b505af1158015611abd573d6000803e3d6000fd5b5050505050505050505050505050565b60025460ff1661097857604051638dfc202b60e01b815260040160405180910390fd5b600060208284031215611b0257600080fd5b5035919050565b6001600160a01b038116811461130f57600080fd5b600060208284031215611b3057600080fd5b8135611b3b81611b09565b9392505050565b60008060008060808587031215611b5857600080fd5b5050823594602084013594506040840135936060013592509050565b6020808252825182820181905260009190848201906040850190845b81811015611bac57835183529284019291840191600101611b90565b50909695505050505050565b60008060408385031215611bcb57600080fd5b8235611bd681611b09565b946020939093013593505050565b60008060008060808587031215611bfa57600080fd5b8435935060208501359250604085013591506060850135611c1a81611b09565b939692955090935050565b60008060408385031215611c3857600080fd5b50508035926020909101359150565b600080600060608486031215611c5c57600080fd5b505081359360208301359350604090920135919050565b80518015158114611c8357600080fd5b919050565b600060208284031215611c9a57600080fd5b611b3b82611c73565b6020808252601590820152744c697374696e67206973206e6f742061637469766560581b604082015260600190565b634e487b7160e01b600052601160045260246000fd5b600060018201611cfa57611cfa611cd2565b5060010190565b634e487b7160e01b600052604160045260246000fd5b604051610100810167ffffffffffffffff81118282101715611d3b57611d3b611d01565b60405290565b604051601f8201601f1916810167ffffffffffffffff81118282101715611d6a57611d6a611d01565b604052919050565b8051611c8381611b09565b600082601f830112611d8e57600080fd5b815167ffffffffffffffff811115611da857611da8611d01565b6020611dbc601f8301601f19168201611d41565b8281528582848701011115611dd057600080fd5b60005b83811015611dee578581018301518282018401528201611dd3565b506000928101909101919091529392505050565b600060208284031215611e1457600080fd5b815167ffffffffffffffff80821115611e2c57600080fd5b908301906101008286031215611e4157600080fd5b611e49611d17565b611e5283611d72565b8152602083015182811115611e6657600080fd5b611e7287828601611d7d565b60208301525060408301516040820152606083015160608201526080830151608082015260a083015160a0820152611eac60c08401611c73565b60c082015260e083015160e082015280935050505092915050565b81810381811115611eda57611eda611cd2565b92915050565b8082028115828204841417611eda57611eda611cd2565b600082611f1457634e487b7160e01b600052601260045260246000fd5b500490565b80820180821115611eda57611eda611cd256fea2646970667358221220862ac4afdeb39c10125a7bdf53ea91607ae13e29785d9aca996fcaad67e9ce4864736f6c63430008140033",
  "linkReferences": {},
  "deployedLinkReferences": {}
}