{
  "_format": "hh-sol-artifact-1",
  "contractName": "PropertyNFT",
  "sourceName": "contracts/PropertyNFT.sol",
  "abi": [
    {
      "inputs": [],
      "stateMutability": "nonpayable",
      "type": "constructor"
    },
    {
      "inputs": [
        {
          "internalType": "address",
          "name": "sender",
          "type": "address"
        },
        {
          "internalType": "uint256",
          "name": "tokenId",
          "type": "uint256"
        },
        {
          "internalType": "address",
          "name": "owner",
          "type": "address"
        }
      ],
      "name": "ERC721IncorrectOwner",
      "type": "error"
    },
    {
      "inputs": [
        {
          "internalType": "address",
          "name": "operator",
          "type": "address"
        },
        {
          "internalType": "uint256",
          "name": "tokenId",
          "type": "uint256"
        }
      ],
      "name": "ERC721InsufficientApproval",
      "type": "error"
    },
    {
      "inputs": [
        {
          "internalType": "address",
          "name": "approver",
          "type": "address"
        }
      ],
      "name": "ERC721InvalidApprover",
      "type": "error"
    },
    {
      "inputs": [
        {
          "internalType": "address",
          "name": "operator",
          "type": "address"
        }
      ],
      "name": "ERC721InvalidOperator",
      "type": "error"
    },
    {
      "inputs": [
        {
          "internalType": "address",
          "name": "owner",
          "type": "address"
        }
      ],
      "name": "ERC721InvalidOwner",
      "type": "error"
    },
    {
      "inputs": [
        {
          "internalType": "address",
          "name": "receiver",
          "type": "address"
        }
      ],
      "name": "ERC721InvalidReceiver",
      "type": "error"
    },
    {
      "inputs": [
        {
          "internalType": "address",
          "name": "sender",
          "type": "address"
        }
      ],
      "name": "ERC721InvalidSender",
      "type": "error"
    },
    {
      "inputs": [
        {
          "internalType": "uint256",
          "name": "tokenId",
          "type": "uint256"
        }
      ],
      "name": "ERC721NonexistentToken",
      "type": "error"
    },
    {
      "inputs": [],
      "name": "EnforcedPause",
      "type": "error"
    },
    {
      "inputs": [],
      "name": "ExpectedPause",
      "type": "error"
    },
    {
      "inputs": [
        {
          "internalType": "address",
          "name": "owner",
          "type": "address"
        }
      ],
      "name": "OwnableInvalidOwner",
      "type": "error"
    },
    {
      "inputs": [
        {
          "internalType": "address",
          "name": "account",
          "type": "address"
        }
      ],
      "name": "OwnableUnauthorizedAccount",
      "type": "error"
    },
    {
      "anonymous": false,
      "inputs": [
        {
          "indexed": true,
          "internalType": "address",
          "name": "owner",
          "type": "address"
        },
        {
          "indexed": true,
          "internalType": "address",
          "name": "approved",
          "type": "address"
        },
        {
          "indexed": true,
          "internalType": "uint256",
          "name": "tokenId",
          "type": "uint256"
        }
      ],
      "name": "Approval",
      "type": "event"
    },
    {
      "anonymous": false,
      "inputs": [
        {
          "indexed": true,
          "internalType": "address",
          "name": "owner",
          "type": "address"
        },
        {
          "indexed": true,
          "internalType": "address",
          "name": "operator",
          "type": "address"
        },
        {
          "indexed": false,
          "internalType": "bool",
          "name": "approved",
          "type": "bool"
        }
      ],
      "name": "ApprovalForAll",
      "type": "event"
    },
    {
      "anonymous": false,
      "inputs": [
        {
          "indexed": false,
          "internalType": "uint256",
          "name": "_fromTokenId",
          "type": "uint256"
        },
        {
          "indexed": false,
          "internalType": "uint256",
          "name": "_toTokenId",
          "type": "uint256"
        }
      ],
      "name": "BatchMetadataUpdate",
      "type": "event"
    },
    {
      "anonymous": false,
      "inputs": [
        {
          "indexed": false,
          "internalType": "uint256",
          "name": "_tokenId",
          "type": "uint256"
        }
      ],
      "name": "MetadataUpdate",
      "type": "event"
    },
    {
      "anonymous": false,
      "inputs": [
        {
          "indexed": true,
          "internalType": "address",
          "name": "previousOwner",
          "type": "address"
        },
        {
          "indexed": true,
          "internalType": "address",
          "name": "newOwner",
          "type": "address"
        }
      ],
      "name": "OwnershipTransferred",
      "type": "event"
    },
    {
      "anonymous": false,
      "inputs": [
        {
          "indexed": false,
          "internalType": "address",
          "name": "account",
          "type": "address"
        }
      ],
      "name": "Paused",
      "type": "event"
    },
    {
      "anonymous": false,
      "inputs": [
        {
          "indexed": true,
          "internalType": "uint256",
          "name": "tokenId",
          "type": "uint256"
        },
        {
          "indexed": true,
          "internalType": "address",
          "name": "owner",
          "type": "address"
        },
        {
          "indexed": false,
          "internalType": "string",
          "name": "propertyAddress",
          "type": "string"
        },
        {
          "indexed": false,
          "internalType": "uint256",
          "name": "valuation",
          "type": "uint256"
        }
      ],
      "name": "PropertyMinted",
      "type": "event"
    },
    {
      "anonymous": false,
      "inputs": [
        {
          "indexed": true,
          "internalType": "uint256",
          "name": "tokenId",
          "type": "uint256"
        },
        {
          "indexed": false,
          "internalType": "address",
          "name": "from",
          "type": "address"
        },
        {
          "indexed": false,
          "internalType": "address",
          "name": "to",
          "type": "address"
        },
        {
          "indexed": false,
          "internalType": "uint256",
          "name": "shares",
          "type": "uint256"
        }
      ],
      "name": "PropertySold",
      "type": "event"
    },
    {
      "anonymous": false,
      "inputs": [
        {
          "indexed": true,
          "internalType": "uint256",
          "name": "tokenId",
          "type": "uint256"
        },
        {
          "indexed": false,
          "internalType": "bytes32",
          "name": "verificationHash",
          "type": "bytes32"
        }
      ],
      "name": "PropertyVerified",
      "type": "event"
    },
    {
      "anonymous": false,
      "inputs": [
        {
          "indexed": true,
          "internalType": "uint256",
          "name": "tokenId",
          "type": "uint256"
        },
        {
          "indexed": false,
          "internalType": "uint256",
          "name": "availableShares",
          "type": "uint256"
        }
      ],
      "name": "SharesUpdated",
      "type": "event"
    },
    {
      "anonymous": false,
      "inputs": [
        {
          "indexed": true,
          "internalType": "address",
          "name": "from",
          "type": "address"
        },
        {
          "indexed": true,
          "internalType": "address",
          "name": "to",
          "type": "address"
        },
        {
          "indexed": true,
          "internalType": "uint256",
          "name": "tokenId",
          "type": "uint256"
        }
      ],
      "name": "Transfer",
      "type": "event"
    },
    {
      "anonymous": false,
      "inputs": [
        {
          "indexed": false,
          "internalType": "address",
          "name": "account",
          "type": "address"
        }
      ],
      "name": "Unpaused",
      "type": "event"
    },
    {
      "inputs": [
        {
          "internalType": "address",
          "name": "to",
          "type": "address"
        },
        {
          "internalType": "uint256",
          "name": "tokenId",
          "type": "uint256"
        }
      ],
      "name": "approve",
      "outputs": [],
      "stateMutability": "nonpayable",
      "type": "function"
    },
    {
      "inputs": [
        {
          "internalType": "address",
          "name": "owner",
          "type": "address"
        }
      ],
      "name": "balanceOf",
      "outputs": [
        {
          "internalType": "uint256",
          "name": "",
          "type": "uint256"
        }
      ],
      "stateMutability": "view",
      "type": "function"
    },
    {
      "inputs": [
        {
          "internalType": "uint256",
          "name": "tokenId",
          "type": "uint256"
        }
      ],
      "name": "burn",
      "outputs": [],
      "stateMutability": "nonpayable",
      "type": "function"
    },
    {
      "inputs": [
        {
          "internalType": "uint256",
          "name": "tokenId",
          "type": "uint256"
        }
      ],
      "name": "getApproved",
      "outputs": [
        {
          "internalType": "address",
          "name": "",
          "type": "address"
        }
      ],
      "stateMutability": "view",
      "type": "function"
    },
    {
      "inputs": [
        {
          "internalType": "uint256",
          "name": "tokenId",
          "type": "uint256"
        }
      ],
      "name": "getProperty",
      "outputs": [
        {
          "components": [
            {
              "internalType": "address",
              "name": "owner",
              "type": "address"
            },
            {
              "internalType": "string",
              "name": "propertyAddress",
              "type": "string"
            },
            {
              "internalType": "uint256",
              "name": "valuation",
              "type": "uint256"
            },
            {
              "internalType": "uint256",
              "name": "totalShares",
              "type": "uint256"
            },
            {
              "internalType": "uint256",
              "name": "availableShares",
              "type": "uint256"
            },
            {
              "internalType": "uint256",
              "name": "pricePerShare",
              "type": "uint256"
            },
            {
              "internalType": "bool",
              "name": "isVerified",
              "type": "bool"
            },
            {
              "internalType": "bytes32",
              "name": "verificationHash",
              "type": "bytes32"
            }
          ],
          "internalType": "struct PropertyNFT.Property",
          "name": "",
          "type": "tuple"
        }
      ],
      "stateMutability": "view",
      "type": "function"
    },
    {
      "inputs": [
        {
          "internalType": "address",
          "name": "owner",
          "type": "address"
        },
        {
          "internalType": "address",
          "name": "operator",
          "type": "address"
        }
      ],
      "name": "isApprovedForAll",
      "outputs": [
        {
          "internalType": "bool",
          "name": "",
          "type": "bool"
        }
      ],
      "stateMutability": "view",
      "type": "function"
    },
    {
      "inputs": [
        {
          "internalType": "address",
          "name": "to",
          "type": "address"
        },
        {
          "internalType": "string",
          "name": "propertyAddress",
          "type": "string"
        },
        {
          "internalType": "uint256",
          "name": "valuation",
          "type": "uint256"
        },
        {
          "internalType": "uint256",
          "name": "totalShares",
          "type": "uint256"
        },
        {
          "internalType": "uint256",
          "name": "pricePerShare",
          "type": "uint256"
        },
        {
          "internalType": "string",
          "name": "uri",
          "type": "string"
        }
      ],
      "name": "mintProperty",
      "outputs": [
        {
          "internalType": "uint256",
          "name": "",
          "type": "uint256"
        }
      ],
      "stateMutability": "nonpayable",
      "type": "function"
    },
    {
      "inputs": [],
      "name": "name",
      "outputs": [
        {
          "internalType": "string",
          "name": "",
          "type": "string"
        }
      ],
      "stateMutability": "view",
      "type": "function"
    },
    {
      "inputs": [],
      "name": "owner",
      "outputs": [
        {
          "internalType": "address",
          "name": "",
          "type": "address"
        }
      ],
      "stateMutability": "view",
      "type": "function"
    },
    {
      "inputs": [
        {
          "internalType": "uint256",
          "name": "tokenId",
          "type": "uint256"
        }
      ],
      "name": "ownerOf",
      "outputs": [
        {
          "internalType": "address",
          "name": "",
          "type": "address"
        }
      ],
      "stateMutability": "view",
      "type": "function"
    },
    {
      "inputs": [],
      "name": "pause",
      "outputs": [],
      "stateMutability": "nonpayable",
      "type": "function"
    },
    {
      "inputs": [],
      "name": "paused",
      "outputs": [
        {
          "internalType": "bool",
          "name": "",
          "type": "bool"
        }
      ],
      "stateMutability": "view",
      "type": "function"
    },
    {
      "inputs": [],
      "name": "renounceOwnership",
      "outputs": [],
      "stateMutability": "nonpayable",
      "type": "function"
    },
    {
      "inputs": [
        {
          "internalType": "address",
          "name": "from",
          "type": "address"
        },
        {
          "internalType": "address",
          "name": "to",
          "type": "address"
        },
        {
          "internalType": "uint256",
          "name": "tokenId",
          "type": "uint256"
        }
      ],
      "name": "safeTransferFrom",
      "outputs": [],
      "stateMutability": "nonpayable",
      "type": "function"
    },
    {
      "inputs": [
        {
          "internalType": "address",
          "name": "from",
          "type": "address"
        },
        {
          "internalType": "address",
          "name": "to",
          "type": "address"
        },
        {
          "internalType": "uint256",
          "name": "tokenId",
          "type": "uint256"
        },
        {
          "internalType": "bytes",
          "name": "data",
          "type": "bytes"
        }
      ],
      "name": "safeTransferFrom",
      "outputs": [],
      "stateMutability": "nonpayable",
      "type": "function"
    },
    {
      "inputs": [
        {
          "internalType": "address",
          "name": "operator",
          "type": "address"
        },
        {
          "internalType": "bool",
          "name": "approved",
          "type": "bool"
        }
      ],
      "name": "setApprovalForAll",
      "outputs": [],
      "stateMutability": "nonpayable",
      "type": "function"
    },
    {
      "inputs": [
        {
          "internalType": "bytes4",
          "name": "interfaceId",
          "type": "bytes4"
        }
      ],
      "name": "supportsInterface",
      "outputs": [
        {
          "internalType": "bool",
          "name": "",
          "type": "bool"
        }
      ],
      "stateMutability": "view",
      "type": "function"
    },
    {
      "inputs": [],
      "name": "symbol",
      "outputs": [
        {
          "internalType": "string",
          "name": "",
          "type": "string"
        }
      ],
      "stateMutability": "view",
      "type": "function"
    },
    {
      "inputs": [
        {
          "internalType": "uint256",
          "name": "tokenId",
          "type": "uint256"
        }
      ],
      "name": "tokenURI",
      "outputs": [
        {
          "internalType": "string",
          "name": "",
          "type": "string"
        }
      ],
      "stateMutability": "view",
      "type": "function"
    },
    {
      "inputs": [
        {
          "internalType": "address",
          "name": "from",
          "type": "address"
        },
        {
          "internalType": "address",
          "name": "to",
          "type": "address"
        },
        {
          "internalType": "uint256",
          "name": "tokenId",
          "type": "uint256"
        }
      ],
      "name": "transferFrom",
      "outputs": [],
      "stateMutability": "nonpayable",
      "type": "function"
    },
    {
      "inputs": [
        {
          "internalType": "address",
          "name": "newOwner",
          "type": "address"
        }
      ],
      "name": "transferOwnership",
      "outputs": [],
      "stateMutability": "nonpayable",
      "type": "function"
    },
    {
      "inputs": [
        {
          "internalType": "uint256",
          "name": "tokenId",
          "type": "uint256"
        },
        {
          "internalType": "address",
          "name": "to",
          "type": "address"
        },
        {
          "internalType": "uint256",
          "name": "shares",
          "type": "uint256"
        }
      ],
      "name": "transferShares",
      "outputs": [],
      "stateMutability": "nonpayable",
      "type": "function"
    },
    {
      "inputs": [],
      "name": "unpause",
      "outputs": [],
      "stateMutability": "nonpayable",
      "type": "function"
    },
    {
      "inputs": [
        {
          "internalType": "uint256",
          "name": "tokenId",
          "type": "uint256"
        },
        {
          "internalType": "uint256",
          "name": "newAvailableShares",
          "type": "uint256"
        }
      ],
      "name": "updateShares",
      "outputs": [],
      "stateMutability": "nonpayable",
      "type": "function"
    },
    {
      "inputs": [
        {
          "internalType": "uint256",
          "name": "tokenId",
          "type": "uint256"
        },
        {
          "internalType": "bytes32",
          "name": "verificationHash",
          "type": "bytes32"
        }
      ],
      "name": "verifyProperty",
      "outputs": [],
      "stateMutability": "nonpayable",
      "type": "function"
    }
  ],
  "bytecode": "0x60806040523480156200001157600080fd5b50336040518060400160405280601481526020017f4c616e667269712050726f7065727479204e465400000000000000000000000081525060405180604001604052806005815260200164131413919560da1b8152508160009081620000789190620001c2565b506001620000878282620001c2565b5050506001600160a01b038116620000b957604051631e4fbdf760e01b81526000600482015260240160405180910390fd5b620000c481620000cb565b506200028e565b600780546001600160a01b038381166001600160a01b0319831681179093556040519116919082907f8be0079c531659141344cd1fd0a4f28419497f9722a3daafe3b4186f6b6457e090600090a35050565b634e487b7160e01b600052604160045260246000fd5b600181811c908216806200014857607f821691505b6020821081036200016957634e487b7160e01b600052602260045260246000fd5b50919050565b601f821115620001bd57600081815260208120601f850160051c81016020861015620001985750805b601f850160051c820191505b81811015620001b957828155600101620001a4565b5050505b505050565b81516001600160401b03811115620001de57620001de6200011d565b620001f681620001ef845462000133565b846200016f565b602080601f8311600181146200022e5760008415620002155750858301515b600019600386901b1c1916600185901b178555620001b9565b600085815260208120601f198616915b828110156200025f578886015182559484019460019091019084016200023e565b50858210156200027e5787850151600019600388901b60f8161c191681555b5050505050600190811b01905550565b611e94806200029e6000396000f3fe608060405234801561001057600080fd5b50600436106101735760003560e01c806370a08231116100de57806395d89b4111610097578063c87b56dd11610071578063c87b56dd14610324578063e985e9c514610337578063f2fde38b1461034a578063fa32004b1461035d57600080fd5b806395d89b41146102f6578063a22cb465146102fe578063b88d4fde1461031157600080fd5b806370a082311461028e578063715018a6146102af5780637b462b0a146102b75780638456cb59146102ca57806384b9a6e6146102d25780638da5cb5b146102e557600080fd5b80633f4ba83a116101305780633f4ba83a1461022857806342842e0e1461023057806342966c68146102435780635c975abb146102565780636352211e14610268578063647902081461027b57600080fd5b806301ffc9a71461017857806306fdde03146101a0578063081812fc146101b5578063095ea7b3146101e057806323b872dd146101f557806332665ffb14610208575b600080fd5b61018b6101863660046117cc565b610370565b60405190151581526020015b60405180910390f35b6101a8610381565b6040516101979190611839565b6101c86101c336600461184c565b610413565b6040516001600160a01b039091168152602001610197565b6101f36101ee366004611881565b61043c565b005b6101f36102033660046118ab565b61044b565b61021b61021636600461184c565b6104db565b60405161019791906118e7565b6101f361066c565b6101f361023e3660046118ab565b61067e565b6101f361025136600461184c565b61069e565b600754600160a01b900460ff1661018b565b6101c861027636600461184c565b6106aa565b6101f3610289366004611964565b6106b5565b6102a161029c366004611986565b61080c565b604051908152602001610197565b6101f3610854565b6102a16102c5366004611a4d565b610866565b6101f3610a60565b6101f36102e0366004611add565b610a70565b6007546001600160a01b03166101c8565b6101a8610beb565b6101f361030c366004611b02565b610bfa565b6101f361031f366004611b3e565b610c05565b6101a861033236600461184c565b610c1d565b61018b610345366004611bba565b610c28565b6101f3610358366004611986565b610c56565b6101f361036b366004611964565b610c94565b600061037b82610d27565b92915050565b60606000805461039090611bed565b80601f01602080910402602001604051908101604052809291908181526020018280546103bc90611bed565b80156104095780601f106103de57610100808354040283529160200191610409565b820191906000526020600020905b8154815290600101906020018083116103ec57829003601f168201915b5050505050905090565b600061041e82610d4c565b506000828152600460205260409020546001600160a01b031661037b565b610447828233610d85565b5050565b6001600160a01b03821661047a57604051633250574960e11b8152600060048201526024015b60405180910390fd5b6000610487838333610d92565b9050836001600160a01b0316816001600160a01b0316146104d5576040516364283d7b60e01b81526001600160a01b0380861660048301526024820184905282166044820152606401610471565b50505050565b61053160405180610100016040528060006001600160a01b031681526020016060815260200160008152602001600081526020016000815260200160008152602001600015158152602001600080191681525090565b6000828152600260205260409020546001600160a01b03166105655760405162461bcd60e51b815260040161047190611c27565b6000828152600960209081526040918290208251610100810190935280546001600160a01b0316835260018101805491928401916105a290611bed565b80601f01602080910402602001604051908101604052809291908181526020018280546105ce90611bed565b801561061b5780601f106105f05761010080835404028352916020019161061b565b820191906000526020600020905b8154815290600101906020018083116105fe57829003601f168201915b505050918352505060028201546020820152600382015460408201526004820154606082015260058201546080820152600682015460ff16151560a082015260079091015460c09091015292915050565b610674610e8b565b61067c610eb8565b565b61069983838360405180602001604052806000815250610c05565b505050565b61044760008233610d92565b600061037b82610d4c565b6000828152600260205260409020546001600160a01b03166106e95760405162461bcd60e51b815260040161047190611c27565b336106f3836106aa565b6001600160a01b0316146107575760405162461bcd60e51b815260206004820152602560248201527f4f6e6c792070726f7065727479206f776e65722063616e207570646174652073604482015264686172657360d81b6064820152608401610471565b6000828152600960205260409020600301548111156107b85760405162461bcd60e51b815260206004820152601a60248201527f43616e6e6f742065786365656420746f74616c207368617265730000000000006044820152606401610471565b600082815260096020526040908190206004018290555182907fe5a0c91086f91c001ad2bce018f8c7818182156e1fd1d3b81788aadd4b2b3021906108009084815260200190565b60405180910390a25050565b60006001600160a01b038216610838576040516322718ad960e21b815260006004820152602401610471565b506001600160a01b031660009081526003602052604090205490565b61085c610e8b565b61067c6000610f0d565b6000610870610f5f565b6001600160a01b0387166108c65760405162461bcd60e51b815260206004820152601b60248201527f43616e6e6f74206d696e7420746f207a65726f206164647265737300000000006044820152606401610471565b600085116109165760405162461bcd60e51b815260206004820181905260248201527f56616c756174696f6e206d7573742062652067726561746572207468616e20306044820152606401610471565b6008805490600061092683611c81565b90915550506008546109388882610f8a565b6109428184610fa4565b60408051610100810182526001600160a01b038a8116825260208083018b81528385018b9052606084018a9052608084018a905260a08401899052600060c0850181905260e085018190528681526009909252939020825181546001600160a01b0319169216919091178155915190919060018201906109c29082611ce0565b506040828101516002830155606083015160038301556080830151600483015560a0830151600583015560c083015160068301805460ff191691151591909117905560e090920151600790910155516001600160a01b0389169082907fe4c200806c9f2e9d582812150a2383eb50fd871dd62d92efe6179bfaf364a59f90610a4d908b908b90611da0565b60405180910390a3979650505050505050565b610a68610e8b565b61067c610ff4565b6000838152600260205260409020546001600160a01b0316610aa45760405162461bcd60e51b815260040161047190611c27565b33610aae846106aa565b6001600160a01b031614610b145760405162461bcd60e51b815260206004820152602760248201527f4f6e6c792070726f7065727479206f776e65722063616e207472616e736665726044820152662073686172657360c81b6064820152608401610471565b600083815260096020526040902060040154811115610b755760405162461bcd60e51b815260206004820152601d60248201527f496e73756666696369656e742073686172657320617661696c61626c650000006044820152606401610471565b60008381526009602052604081206004018054839290610b96908490611dc2565b9091555050604080513381526001600160a01b038416602082015290810182905283907fddd64180d9701c7ede08673ac8106484ff983a472929330d4fbde4e35d65cb069060600160405180910390a2505050565b60606001805461039090611bed565b610447338383611037565b610c1084848461044b565b6104d533858585856110d6565b606061037b82611201565b6001600160a01b03918216600090815260056020908152604080832093909416825291909152205460ff1690565b610c5e610e8b565b6001600160a01b038116610c8857604051631e4fbdf760e01b815260006004820152602401610471565b610c9181610f0d565b50565b610c9c610e8b565b6000828152600260205260409020546001600160a01b0316610cd05760405162461bcd60e51b815260040161047190611c27565b6000828152600960205260409081902060068101805460ff191660011790556007018290555182907f8ce8996277fef2f4ad3ebea80091e598a5772e6f2f7fdd9eb0d1196424c66331906108009084815260200190565b60006001600160e01b03198216632483248360e11b148061037b575061037b82611312565b6000818152600260205260408120546001600160a01b03168061037b57604051637e27328960e01b815260048101849052602401610471565b6106998383836001611362565b6000828152600260205260408120546001600160a01b0390811690831615610dbf57610dbf818486611468565b6001600160a01b03811615610dfd57610ddc600085600080611362565b6001600160a01b038116600090815260036020526040902080546000190190555b6001600160a01b03851615610e2c576001600160a01b0385166000908152600360205260409020805460010190555b60008481526002602052604080822080546001600160a01b0319166001600160a01b0389811691821790925591518793918516917fddf252ad1be2c89b69c2b068fc378daa952ba7f163c4a11628f55a4df523b3ef91a4949350505050565b6007546001600160a01b0316331461067c5760405163118cdaa760e01b8152336004820152602401610471565b610ec06114cc565b6007805460ff60a01b191690557f5db9ee0a495bf2e6ff9c91a7834c1ba4fdd244a5e8aa4e537bd38aeae4b073aa335b6040516001600160a01b03909116815260200160405180910390a1565b600780546001600160a01b038381166001600160a01b0319831681179093556040519116919082907f8be0079c531659141344cd1fd0a4f28419497f9722a3daafe3b4186f6b6457e090600090a35050565b600754600160a01b900460ff161561067c5760405163d93c066560e01b815260040160405180910390fd5b6104478282604051806020016040528060008152506114f6565b6000828152600660205260409020610fbc8282611ce0565b506040518281527ff8e1a15aba9398e019f0b49df1a4fde98ee17ae345cb5f6b5e2c27f5033e8ce79060200160405180910390a15050565b610ffc610f5f565b6007805460ff60a01b1916600160a01b1790557f62e78cea01bee320cd4e420270b5ea74000d11b0c9f74754ebdbfc544b05a258610ef03390565b6001600160a01b03821661106957604051630b61174360e31b81526001600160a01b0383166004820152602401610471565b6001600160a01b03838116600081815260056020908152604080832094871680845294825291829020805460ff191686151590811790915591519182527f17307eab39ab6107e8899845ad3d59bd9653f200f220920489ca2b5937696c31910160405180910390a3505050565b6001600160a01b0383163b156111fa57604051630a85bd0160e11b81526001600160a01b0384169063150b7a0290611118908890889087908790600401611dd5565b6020604051808303816000875af1925050508015611153575060408051601f3d908101601f1916820190925261115091810190611e12565b60015b6111bc573d808015611181576040519150601f19603f3d011682016040523d82523d6000602084013e611186565b606091505b5080516000036111b457604051633250574960e11b81526001600160a01b0385166004820152602401610471565b805160208201fd5b6001600160e01b03198116630a85bd0160e11b146111f857604051633250574960e11b81526001600160a01b0385166004820152602401610471565b505b5050505050565b606061120c82610d4c565b506000828152600660205260408120805461122690611bed565b80601f016020809104026020016040519081016040528092919081815260200182805461125290611bed565b801561129f5780601f106112745761010080835404028352916020019161129f565b820191906000526020600020905b81548152906001019060200180831161128257829003601f168201915b5050505050905060006112bd60408051602081019091526000815290565b905080516000036112cf575092915050565b8151156113015780826040516020016112e9929190611e2f565b60405160208183030381529060405292505050919050565b61130a8461150e565b949350505050565b60006001600160e01b031982166380ac58cd60e01b148061134357506001600160e01b03198216635b5e139f60e01b145b8061037b57506301ffc9a760e01b6001600160e01b031983161461037b565b808061137657506001600160a01b03821615155b1561143857600061138684610d4c565b90506001600160a01b038316158015906113b25750826001600160a01b0316816001600160a01b031614155b80156113c557506113c38184610c28565b155b156113ee5760405163a9fbf51f60e01b81526001600160a01b0384166004820152602401610471565b81156114365783856001600160a01b0316826001600160a01b03167f8c5be1e5ebec7d5bd14f71427d1e84f3dd0314c0f7b2291e5b200ac8c7c3b92560405160405180910390a45b505b5050600090815260046020526040902080546001600160a01b0319166001600160a01b0392909216919091179055565b611473838383611583565b610699576001600160a01b0383166114a157604051637e27328960e01b815260048101829052602401610471565b60405163177e802f60e01b81526001600160a01b038316600482015260248101829052604401610471565b600754600160a01b900460ff1661067c57604051638dfc202b60e01b815260040160405180910390fd5b61150083836115e6565b6106993360008585856110d6565b606061151982610d4c565b50600061153160408051602081019091526000815290565b90506000815111611551576040518060200160405280600081525061157c565b8061155b8461164b565b60405160200161156c929190611e2f565b6040516020818303038152906040525b9392505050565b60006001600160a01b0383161580159061130a5750826001600160a01b0316846001600160a01b031614806115bd57506115bd8484610c28565b8061130a5750506000908152600460205260409020546001600160a01b03908116911614919050565b6001600160a01b03821661161057604051633250574960e11b815260006004820152602401610471565b600061161e83836000610d92565b90506001600160a01b03811615610699576040516339e3563760e11b815260006004820152602401610471565b60606000611658836116de565b600101905060008167ffffffffffffffff811115611678576116786119a1565b6040519080825280601f01601f1916602001820160405280156116a2576020820181803683370190505b5090508181016020015b600019016f181899199a1a9b1b9c1cb0b131b232b360811b600a86061a8153600a85049450846116ac57509392505050565b60008072184f03e93ff9f4daa797ed6e38ed64bf6a1f0160401b831061171d5772184f03e93ff9f4daa797ed6e38ed64bf6a1f0160401b830492506040015b6d04ee2d6d415b85acef81000000008310611749576d04ee2d6d415b85acef8100000000830492506020015b662386f26fc10000831061176757662386f26fc10000830492506010015b6305f5e100831061177f576305f5e100830492506008015b612710831061179357612710830492506004015b606483106117a5576064830492506002015b600a831061037b5760010192915050565b6001600160e01b031981168114610c9157600080fd5b6000602082840312156117de57600080fd5b813561157c816117b6565b60005b838110156118045781810151838201526020016117ec565b50506000910152565b600081518084526118258160208601602086016117e9565b601f01601f19169290920160200192915050565b60208152600061157c602083018461180d565b60006020828403121561185e57600080fd5b5035919050565b80356001600160a01b038116811461187c57600080fd5b919050565b6000806040838503121561189457600080fd5b61189d83611865565b946020939093013593505050565b6000806000606084860312156118c057600080fd5b6118c984611865565b92506118d760208501611865565b9150604084013590509250925092565b602080825282516001600160a01b031682820152820151610100604083018190526000919061191a61012085018361180d565b91506040850151606085015260608501516080850152608085015160a085015260a085015160c085015260c0850151151560e085015260e085015181850152508091505092915050565b6000806040838503121561197757600080fd5b50508035926020909101359150565b60006020828403121561199857600080fd5b61157c82611865565b634e487b7160e01b600052604160045260246000fd5b600067ffffffffffffffff808411156119d2576119d26119a1565b604051601f8501601f19908116603f011681019082821181831017156119fa576119fa6119a1565b81604052809350858152868686011115611a1357600080fd5b858560208301376000602087830101525050509392505050565b600082601f830112611a3e57600080fd5b61157c838335602085016119b7565b60008060008060008060c08789031215611a6657600080fd5b611a6f87611865565b9550602087013567ffffffffffffffff80821115611a8c57600080fd5b611a988a838b01611a2d565b965060408901359550606089013594506080890135935060a0890135915080821115611ac357600080fd5b50611ad089828a01611a2d565b9150509295509295509295565b600080600060608486031215611af257600080fd5b833592506118d760208501611865565b60008060408385031215611b1557600080fd5b611b1e83611865565b915060208301358015158114611b3357600080fd5b809150509250929050565b60008060008060808587031215611b5457600080fd5b611b5d85611865565b9350611b6b60208601611865565b925060408501359150606085013567ffffffffffffffff811115611b8e57600080fd5b8501601f81018713611b9f57600080fd5b611bae878235602084016119b7565b91505092959194509250565b60008060408385031215611bcd57600080fd5b611bd683611865565b9150611be460208401611865565b90509250929050565b600181811c90821680611c0157607f821691505b602082108103611c2157634e487b7160e01b600052602260045260246000fd5b50919050565b60208082526024908201527f50726f70657274794e46543a2050726f706572747920646f6573206e6f7420656040820152631e1a5cdd60e21b606082015260800190565b634e487b7160e01b600052601160045260246000fd5b600060018201611c9357611c93611c6b565b5060010190565b601f82111561069957600081815260208120601f850160051c81016020861015611cc15750805b601f850160051c820191505b818110156111f857828155600101611ccd565b815167ffffffffffffffff811115611cfa57611cfa6119a1565b611d0e81611d088454611bed565b84611c9a565b602080601f831160018114611d435760008415611d2b5750858301515b600019600386901b1c1916600185901b1785556111f8565b600085815260208120601f198616915b82811015611d7257888601518255948401946001909101908401611d53565b5085821015611d905787850151600019600388901b60f8161c191681555b5050505050600190811b01905550565b604081526000611db3604083018561180d565b90508260208301529392505050565b8181038181111561037b5761037b611c6b565b6001600160a01b0385811682528416602082015260408101839052608060608201819052600090611e089083018461180d565b9695505050505050565b600060208284031215611e2457600080fd5b815161157c816117b6565b60008351611e418184602088016117e9565b835190830190611e558183602088016117e9565b0194935050505056fea26469706673582212204fcf288917b8425ef38f59f401dc51bca4e4be07b3d75ba1b4bff1fd5762c89064736f6c63430008140033",
  "linkReferences": {},
  "deployedLinkReferences": {}
}